{
  "abi": [
    {
      "type": "constructor",
      "inputs": [
        {
          "name": "name_",
          "type": "string",
          "internalType": "string"
        },
        {
          "name": "symbol_",
          "type": "string",
          "internalType": "string"
        },
        {
          "name": "threshold_",
          "type": "uint256",
          "internalType": "uint256"
        }
      ],
      "stateMutability": "nonpayable"
    },
    {
      "type": "function",
      "name": "allowance",
      "inputs": [
        {
          "name": "owner",
          "type": "address",
          "internalType": "address"
        },
        {
          "name": "spender",
          "type": "address",
          "internalType": "address"
        }
      ],
      "outputs": [
        {
          "name": "",
          "type": "uint256",
          "internalType": "uint256"
        }
      ],
      "stateMutability": "view"
    },
    {
      "type": "function",
      "name": "approve",
      "inputs": [
        {
          "name": "spender",
          "type": "address",
          "internalType": "address"
        },
        {
          "name": "value",
          "type": "uint256",
          "internalType": "uint256"
        }
      ],
      "outputs": [
        {
          "name": "",
          "type": "bool",
          "internalType": "bool"
        }
      ],
      "stateMutability": "nonpayable"
    },
    {
      "type": "function",
      "name": "balanceOf",
      "inputs": [
        {
          "name": "account",
          "type": "address",
          "internalType": "address"
        }
      ],
      "outputs": [
        {
          "name": "",
          "type": "uint256",
          "internalType": "uint256"
        }
      ],
      "stateMutability": "view"
    },
    {
      "type": "function",
      "name": "decimals",
      "inputs": [],
      "outputs": [
        {
          "name": "",
          "type": "uint8",
          "internalType": "uint8"
        }
      ],
      "stateMutability": "view"
    },
    {
      "type": "function",
      "name": "mint",
      "inputs": [
        {
          "name": "to",
          "type": "address",
          "internalType": "address"
        },
        {
          "name": "amount",
          "type": "uint256",
          "internalType": "uint256"
        }
      ],
      "outputs": [],
      "stateMutability": "nonpayable"
    },
    {
      "type": "function",
      "name": "name",
      "inputs": [],
      "outputs": [
        {
          "name": "",
          "type": "string",
          "internalType": "string"
        }
      ],
      "stateMutability": "view"
    },
    {
      "type": "function",
      "name": "owner",
      "inputs": [],
      "outputs": [
        {
          "name": "",
          "type": "address",
          "internalType": "address"
        }
      ],
      "stateMutability": "view"
    },
    {
      "type": "function",
      "name": "pauseMinting",
      "inputs": [],
      "outputs": [],
      "stateMutability": "nonpayable"
    },
    {
      "type": "function",
      "name": "paused",
      "inputs": [],
      "outputs": [
        {
          "name": "",
          "type": "bool",
          "internalType": "bool"
        }
      ],
      "stateMutability": "view"
    },
    {
      "type": "function",
      "name": "renounceOwnership",
      "inputs": [],
      "outputs": [],
      "stateMutability": "nonpayable"
    },
    {
      "type": "function",
      "name": "symbol",
      "inputs": [],
      "outputs": [
        {
          "name": "",
          "type": "string",
          "internalType": "string"
        }
      ],
      "stateMutability": "view"
    },
    {
      "type": "function",
      "name": "threshold",
      "inputs": [],
      "outputs": [
        {
          "name": "",
          "type": "uint256",
          "internalType": "uint256"
        }
      ],
      "stateMutability": "view"
    },
    {
      "type": "function",
      "name": "thresholdCrossed",
      "inputs": [],
      "outputs": [
        {
          "name": "",
          "type": "bool",
          "internalType": "bool"
        }
      ],
      "stateMutability": "view"
    },
    {
      "type": "function",
      "name": "totalSupply",
      "inputs": [],
      "outputs": [
        {
          "name": "",
          "type": "uint256",
          "internalType": "uint256"
        }
      ],
      "stateMutability": "view"
    },
    {
      "type": "function",
      "name": "transfer",
      "inputs": [
        {
          "name": "to",
          "type": "address",
          "internalType": "address"
        },
        {
          "name": "value",
          "type": "uint256",
          "internalType": "uint256"
        }
      ],
      "outputs": [
        {
          "name": "",
          "type": "bool",
          "internalType": "bool"
        }
      ],
      "stateMutability": "nonpayable"
    },
    {
      "type": "function",
      "name": "transferFrom",
      "inputs": [
        {
          "name": "from",
          "type": "address",
          "internalType": "address"
        },
        {
          "name": "to",
          "type": "address",
          "internalType": "address"
        },
        {
          "name": "value",
          "type": "uint256",
          "internalType": "uint256"
        }
      ],
      "outputs": [
        {
          "name": "",
          "type": "bool",
          "internalType": "bool"
        }
      ],
      "stateMutability": "nonpayable"
    },
    {
      "type": "function",
      "name": "transferOwnership",
      "inputs": [
        {
          "name": "newOwner",
          "type": "address",
          "internalType": "address"
        }
      ],
      "outputs": [],
      "stateMutability": "nonpayable"
    },
    {
      "type": "function",
      "name": "unpauseMinting",
      "inputs": [],
      "outputs": [],
      "stateMutability": "nonpayable"
    },
    {
      "type": "function",
      "name": "updateThreshold",
      "inputs": [
        {
          "name": "newThreshold",
          "type": "uint256",
          "internalType": "uint256"
        }
      ],
      "outputs": [],
      "stateMutability": "nonpayable"
    },
    {
      "type": "event",
      "name": "Approval",
      "inputs": [
        {
          "name": "owner",
          "type": "address",
          "indexed": true,
          "internalType": "address"
        },
        {
          "name": "spender",
          "type": "address",
          "indexed": true,
          "internalType": "address"
        },
        {
          "name": "value",
          "type": "uint256",
          "indexed": false,
          "internalType": "uint256"
        }
      ],
      "anonymous": false
    },
    {
      "type": "event",
      "name": "OwnershipTransferred",
      "inputs": [
        {
          "name": "previousOwner",
          "type": "address",
          "indexed": true,
          "internalType": "address"
        },
        {
          "name": "newOwner",
          "type": "address",
          "indexed": true,
          "internalType": "address"
        }
      ],
      "anonymous": false
    },
    {
      "type": "event",
      "name": "Paused",
      "inputs": [
        {
          "name": "account",
          "type": "address",
          "indexed": false,
          "internalType": "address"
        }
      ],
      "anonymous": false
    },
    {
      "type": "event",
      "name": "ThresholdCrossed",
      "inputs": [
        {
          "name": "totalSupply",
          "type": "uint256",
          "indexed": false,
          "internalType": "uint256"
        },
        {
          "name": "threshold",
          "type": "uint256",
          "indexed": false,
          "internalType": "uint256"
        }
      ],
      "anonymous": false
    },
    {
      "type": "event",
      "name": "ThresholdUpdated",
      "inputs": [
        {
          "name": "newThreshold",
          "type": "uint256",
          "indexed": false,
          "internalType": "uint256"
        }
      ],
      "anonymous": false
    },
    {
      "type": "event",
      "name": "TokenMinted",
      "inputs": [
        {
          "name": "to",
          "type": "address",
          "indexed": false,
          "internalType": "address"
        },
        {
          "name": "amount",
          "type": "uint256",
          "indexed": false,
          "internalType": "uint256"
        }
      ],
      "anonymous": false
    },
    {
      "type": "event",
      "name": "Transfer",
      "inputs": [
        {
          "name": "from",
          "type": "address",
          "indexed": true,
          "internalType": "address"
        },
        {
          "name": "to",
          "type": "address",
          "indexed": true,
          "internalType": "address"
        },
        {
          "name": "value",
          "type": "uint256",
          "indexed": false,
          "internalType": "uint256"
        }
      ],
      "anonymous": false
    },
    {
      "type": "event",
      "name": "Unpaused",
      "inputs": [
        {
          "name": "account",
          "type": "address",
          "indexed": false,
          "internalType": "address"
        }
      ],
      "anonymous": false
    },
    {
      "type": "error",
      "name": "ERC20InsufficientAllowance",
      "inputs": [
        {
          "name": "spender",
          "type": "address",
          "internalType": "address"
        },
        {
          "name": "allowance",
          "type": "uint256",
          "internalType": "uint256"
        },
        {
          "name": "needed",
          "type": "uint256",
          "internalType": "uint256"
        }
      ]
    },
    {
      "type": "error",
      "name": "ERC20InsufficientBalance",
      "inputs": [
        {
          "name": "sender",
          "type": "address",
          "internalType": "address"
        },
        {
          "name": "balance",
          "type": "uint256",
          "internalType": "uint256"
        },
        {
          "name": "needed",
          "type": "uint256",
          "internalType": "uint256"
        }
      ]
    },
    {
      "type": "error",
      "name": "ERC20InvalidApprover",
      "inputs": [
        {
          "name": "approver",
          "type": "address",
          "internalType": "address"
        }
      ]
    },
    {
      "type": "error",
      "name": "ERC20InvalidReceiver",
      "inputs": [
        {
          "name": "receiver",
          "type": "address",
          "internalType": "address"
        }
      ]
    },
    {
      "type": "error",
      "name": "ERC20InvalidSender",
      "inputs": [
        {
          "name": "sender",
          "type": "address",
          "internalType": "address"
        }
      ]
    },
    {
      "type": "error",
      "name": "ERC20InvalidSpender",
      "inputs": [
        {
          "name": "spender",
          "type": "address",
          "internalType": "address"
        }
      ]
    },
    {
      "type": "error",
      "name": "EnforcedPause",
      "inputs": []
    },
    {
      "type": "error",
      "name": "ExpectedPause",
      "inputs": []
    },
    {
      "type": "error",
      "name": "OwnableInvalidOwner",
      "inputs": [
        {
          "name": "owner",
          "type": "address",
          "internalType": "address"
        }
      ]
    },
    {
      "type": "error",
      "name": "OwnableUnauthorizedAccount",
      "inputs": [
        {
          "name": "account",
          "type": "address",
          "internalType": "address"
        }
      ]
    }
  ],
  "bytecode": {
    "object": "0x608060405234801561000f575f5ffd5b50604051611c83380380611c8383398181016040528101906100319190610328565b338383816003908161004391906105b7565b50806004908161005391906105b7565b5050505f73ffffffffffffffffffffffffffffffffffffffff168173ffffffffffffffffffffffffffffffffffffffff16036100c6575f6040517f1e4fbdf70000000000000000000000000000000000000000000000000000000081526004016100bd91906106c5565b60405180910390fd5b6100d5816100e560201b60201c565b50806006819055505050506106de565b5f60055f9054906101000a900473ffffffffffffffffffffffffffffffffffffffff1690508160055f6101000a81548173ffffffffffffffffffffffffffffffffffffffff021916908373ffffffffffffffffffffffffffffffffffffffff1602179055508173ffffffffffffffffffffffffffffffffffffffff168173ffffffffffffffffffffffffffffffffffffffff167f8be0079c531659141344cd1fd0a4f28419497f9722a3daafe3b4186f6b6457e060405160405180910390a35050565b5f604051905090565b5f5ffd5b5f5ffd5b5f5ffd5b5f5ffd5b5f601f19601f8301169050919050565b7f4e487b71000000000000000000000000000000000000000000000000000000005f52604160045260245ffd5b610207826101c1565b810181811067ffffffffffffffff82111715610226576102256101d1565b5b80604052505050565b5f6102386101a8565b905061024482826101fe565b919050565b5f67ffffffffffffffff821115610263576102626101d1565b5b61026c826101c1565b9050602081019050919050565b8281835e5f83830152505050565b5f61029961029484610249565b61022f565b9050828152602081018484840111156102b5576102b46101bd565b5b6102c0848285610279565b509392505050565b5f82601f8301126102dc576102db6101b9565b5b81516102ec848260208601610287565b91505092915050565b5f819050919050565b610307816102f5565b8114610311575f5ffd5b50565b5f81519050610322816102fe565b92915050565b5f5f5f6060848603121561033f5761033e6101b1565b5b5f84015167ffffffffffffffff81111561035c5761035b6101b5565b5b610368868287016102c8565b935050602084015167ffffffffffffffff811115610389576103886101b5565b5b610395868287016102c8565b92505060406103a686828701610314565b9150509250925092565b5f81519050919050565b7f4e487b71000000000000000000000000000000000000000000000000000000005f52602260045260245ffd5b5f60028204905060018216806103fe57607f821691505b602082108103610411576104106103ba565b5b50919050565b5f819050815f5260205f209050919050565b5f6020601f8301049050919050565b5f82821b905092915050565b5f600883026104737fffffffffffffffffffffffffffffffffffffffffffffffffffffffffffffffff82610438565b61047d8683610438565b95508019841693508086168417925050509392505050565b5f819050919050565b5f6104b86104b36104ae846102f5565b610495565b6102f5565b9050919050565b5f819050919050565b6104d18361049e565b6104e56104dd826104bf565b848454610444565b825550505050565b5f5f905090565b6104fc6104ed565b6105078184846104c8565b505050565b5b8181101561052a5761051f5f826104f4565b60018101905061050d565b5050565b601f82111561056f5761054081610417565b61054984610429565b81016020851015610558578190505b61056c61056485610429565b83018261050c565b50505b505050565b5f82821c905092915050565b5f61058f5f1984600802610574565b1980831691505092915050565b5f6105a78383610580565b9150826002028217905092915050565b6105c0826103b0565b67ffffffffffffffff8111156105d9576105d86101d1565b5b6105e382546103e7565b6105ee82828561052e565b5f60209050601f83116001811461061f575f841561060d578287015190505b610617858261059c565b86555061067e565b601f19841661062d86610417565b5f5b828110156106545784890151825560018201915060208501945060208101905061062f565b86831015610671578489015161066d601f891682610580565b8355505b6001600288020188555050505b505050505050565b5f73ffffffffffffffffffffffffffffffffffffffff82169050919050565b5f6106af82610686565b9050919050565b6106bf816106a5565b82525050565b5f6020820190506106d85f8301846106b6565b92915050565b611598806106eb5f395ff3fe608060405234801561000f575f5ffd5b506004361061011f575f3560e01c806370a08231116100ab578063ae2003221161006f578063ae200322146102f9578063d7d7442f14610303578063da8fbf2a1461031f578063dd62ed3e14610329578063f2fde38b146103595761011f565b806370a0823114610253578063715018a6146102835780638da5cb5b1461028d57806395d89b41146102ab578063a9059cbb146102c95761011f565b806323b872dd116100f257806323b872dd146101ad578063313ce567146101dd57806340c10f19146101fb57806342cde4e8146102175780635c975abb146102355761011f565b806306fdde0314610123578063095ea7b31461014157806318160ddd146101715780631b9bd4a01461018f575b5f5ffd5b61012b610375565b6040516101389190611198565b60405180910390f35b61015b60048036038101906101569190611249565b610405565b60405161016891906112a1565b60405180910390f35b610179610427565b60405161018691906112c9565b60405180910390f35b610197610430565b6040516101a491906112a1565b60405180910390f35b6101c760048036038101906101c291906112e2565b610442565b6040516101d491906112a1565b60405180910390f35b6101e5610470565b6040516101f2919061134d565b60405180910390f35b61021560048036038101906102109190611249565b610478565b005b61021f610554565b60405161022c91906112c9565b60405180910390f35b61023d61055a565b60405161024a91906112a1565b60405180910390f35b61026d60048036038101906102689190611366565b610570565b60405161027a91906112c9565b60405180910390f35b61028b6105b5565b005b6102956105c8565b6040516102a291906113a0565b60405180910390f35b6102b36105f0565b6040516102c09190611198565b60405180910390f35b6102e360048036038101906102de9190611249565b610680565b6040516102f091906112a1565b60405180910390f35b6103016106a2565b005b61031d600480360381019061031891906113b9565b6106b4565b005b61032761077d565b005b610343600480360381019061033e91906113e4565b61078f565b60405161035091906112c9565b60405180910390f35b610373600480360381019061036e9190611366565b610811565b005b6060600380546103849061144f565b80601f01602080910402602001604051908101604052809291908181526020018280546103b09061144f565b80156103fb5780601f106103d2576101008083540402835291602001916103fb565b820191905f5260205f20905b8154815290600101906020018083116103de57829003601f168201915b5050505050905090565b5f5f61040f610895565b905061041c81858561089c565b600191505092915050565b5f600254905090565b60075f9054906101000a900460ff1681565b5f5f61044c610895565b90506104598582856108ae565b610464858585610941565b60019150509392505050565b5f6012905090565b610480610a31565b610488610ab8565b6104928282610af9565b5f61049b610427565b905060075f9054906101000a900460ff161580156104bb57506006548110155b1561051657600160075f6101000a81548160ff0219169083151502179055507fd7b72b2c92ec30d70e7137b014c4db37cde7eda56a21681e9bc1e689b4fdf3488160065460405161050d92919061147f565b60405180910390a15b7fb9144c96c86541f6fa89c9f2f02495cccf4b08cd6643e26d34ee00aa586558a883836040516105479291906114a6565b60405180910390a1505050565b60065481565b5f600560149054906101000a900460ff16905090565b5f5f5f8373ffffffffffffffffffffffffffffffffffffffff1673ffffffffffffffffffffffffffffffffffffffff1681526020019081526020015f20549050919050565b6105bd610a31565b6105c65f610b78565b565b5f60055f9054906101000a900473ffffffffffffffffffffffffffffffffffffffff16905090565b6060600480546105ff9061144f565b80601f016020809104026020016040519081016040528092919081815260200182805461062b9061144f565b80156106765780601f1061064d57610100808354040283529160200191610676565b820191905f5260205f20905b81548152906001019060200180831161065957829003601f168201915b5050505050905090565b5f5f61068a610895565b9050610697818585610941565b600191505092915050565b6106aa610a31565b6106b2610c3b565b565b6106bc610a31565b806006819055505f60075f6101000a81548160ff0219169083151502179055505f6106e5610427565b905081811061074257600160075f6101000a81548160ff0219169083151502179055507fd7b72b2c92ec30d70e7137b014c4db37cde7eda56a21681e9bc1e689b4fdf348818360405161073992919061147f565b60405180910390a15b7fadfa8ecb21b6962ebcd0adbd9ab985b7b4c5b5eb3b0dead683171565c7bfe1718260405161077191906112c9565b60405180910390a15050565b610785610a31565b61078d610c9d565b565b5f60015f8473ffffffffffffffffffffffffffffffffffffffff1673ffffffffffffffffffffffffffffffffffffffff1681526020019081526020015f205f8373ffffffffffffffffffffffffffffffffffffffff1673ffffffffffffffffffffffffffffffffffffffff1681526020019081526020015f2054905092915050565b610819610a31565b5f73ffffffffffffffffffffffffffffffffffffffff168173ffffffffffffffffffffffffffffffffffffffff1603610889575f6040517f1e4fbdf700000000000000000000000000000000000000000000000000000000815260040161088091906113a0565b60405180910390fd5b61089281610b78565b50565b5f33905090565b6108a98383836001610d00565b505050565b5f6108b9848461078f565b90507fffffffffffffffffffffffffffffffffffffffffffffffffffffffffffffffff81101561093b578181101561092c578281836040517ffb8f41b2000000000000000000000000000000000000000000000000000000008152600401610923939291906114cd565b60405180910390fd5b61093a84848484035f610d00565b5b50505050565b5f73ffffffffffffffffffffffffffffffffffffffff168373ffffffffffffffffffffffffffffffffffffffff16036109b1575f6040517f96c6fd1e0000000000000000000000000000000000000000000000000000000081526004016109a891906113a0565b60405180910390fd5b5f73ffffffffffffffffffffffffffffffffffffffff168273ffffffffffffffffffffffffffffffffffffffff1603610a21575f6040517fec442f05000000000000000000000000000000000000000000000000000000008152600401610a1891906113a0565b60405180910390fd5b610a2c838383610ecf565b505050565b610a39610895565b73ffffffffffffffffffffffffffffffffffffffff16610a576105c8565b73ffffffffffffffffffffffffffffffffffffffff1614610ab657610a7a610895565b6040517f118cdaa7000000000000000000000000000000000000000000000000000000008152600401610aad91906113a0565b60405180910390fd5b565b610ac061055a565b15610af7576040517fd93c066500000000000000000000000000000000000000000000000000000000815260040160405180910390fd5b565b5f73ffffffffffffffffffffffffffffffffffffffff168273ffffffffffffffffffffffffffffffffffffffff1603610b69575f6040517fec442f05000000000000000000000000000000000000000000000000000000008152600401610b6091906113a0565b60405180910390fd5b610b745f8383610ecf565b5050565b5f60055f9054906101000a900473ffffffffffffffffffffffffffffffffffffffff1690508160055f6101000a81548173ffffffffffffffffffffffffffffffffffffffff021916908373ffffffffffffffffffffffffffffffffffffffff1602179055508173ffffffffffffffffffffffffffffffffffffffff168173ffffffffffffffffffffffffffffffffffffffff167f8be0079c531659141344cd1fd0a4f28419497f9722a3daafe3b4186f6b6457e060405160405180910390a35050565b610c436110e8565b5f600560146101000a81548160ff0219169083151502179055507f5db9ee0a495bf2e6ff9c91a7834c1ba4fdd244a5e8aa4e537bd38aeae4b073aa610c86610895565b604051610c9391906113a0565b60405180910390a1565b610ca5610ab8565b6001600560146101000a81548160ff0219169083151502179055507f62e78cea01bee320cd4e420270b5ea74000d11b0c9f74754ebdbfc544b05a258610ce9610895565b604051610cf691906113a0565b60405180910390a1565b5f73ffffffffffffffffffffffffffffffffffffffff168473ffffffffffffffffffffffffffffffffffffffff1603610d70575f6040517fe602df05000000000000000000000000000000000000000000000000000000008152600401610d6791906113a0565b60405180910390fd5b5f73ffffffffffffffffffffffffffffffffffffffff168373ffffffffffffffffffffffffffffffffffffffff1603610de0575f6040517f94280d62000000000000000000000000000000000000000000000000000000008152600401610dd791906113a0565b60405180910390fd5b8160015f8673ffffffffffffffffffffffffffffffffffffffff1673ffffffffffffffffffffffffffffffffffffffff1681526020019081526020015f205f8573ffffffffffffffffffffffffffffffffffffffff1673ffffffffffffffffffffffffffffffffffffffff1681526020019081526020015f20819055508015610ec9578273ffffffffffffffffffffffffffffffffffffffff168473ffffffffffffffffffffffffffffffffffffffff167f8c5be1e5ebec7d5bd14f71427d1e84f3dd0314c0f7b2291e5b200ac8c7c3b92584604051610ec091906112c9565b60405180910390a35b50505050565b5f73ffffffffffffffffffffffffffffffffffffffff168373ffffffffffffffffffffffffffffffffffffffff1603610f1f578060025f828254610f13919061152f565b92505081905550610fed565b5f5f5f8573ffffffffffffffffffffffffffffffffffffffff1673ffffffffffffffffffffffffffffffffffffffff1681526020019081526020015f2054905081811015610fa8578381836040517fe450d38c000000000000000000000000000000000000000000000000000000008152600401610f9f939291906114cd565b60405180910390fd5b8181035f5f8673ffffffffffffffffffffffffffffffffffffffff1673ffffffffffffffffffffffffffffffffffffffff1681526020019081526020015f2081905550505b5f73ffffffffffffffffffffffffffffffffffffffff168273ffffffffffffffffffffffffffffffffffffffff1603611034578060025f828254039250508190555061107e565b805f5f8473ffffffffffffffffffffffffffffffffffffffff1673ffffffffffffffffffffffffffffffffffffffff1681526020019081526020015f205f82825401925050819055505b8173ffffffffffffffffffffffffffffffffffffffff168373ffffffffffffffffffffffffffffffffffffffff167fddf252ad1be2c89b69c2b068fc378daa952ba7f163c4a11628f55a4df523b3ef836040516110db91906112c9565b60405180910390a3505050565b6110f061055a565b611126576040517f8dfc202b00000000000000000000000000000000000000000000000000000000815260040160405180910390fd5b565b5f81519050919050565b5f82825260208201905092915050565b8281835e5f83830152505050565b5f601f19601f8301169050919050565b5f61116a82611128565b6111748185611132565b9350611184818560208601611142565b61118d81611150565b840191505092915050565b5f6020820190508181035f8301526111b08184611160565b905092915050565b5f5ffd5b5f73ffffffffffffffffffffffffffffffffffffffff82169050919050565b5f6111e5826111bc565b9050919050565b6111f5816111db565b81146111ff575f5ffd5b50565b5f81359050611210816111ec565b92915050565b5f819050919050565b61122881611216565b8114611232575f5ffd5b50565b5f813590506112438161121f565b92915050565b5f5f6040838503121561125f5761125e6111b8565b5b5f61126c85828601611202565b925050602061127d85828601611235565b9150509250929050565b5f8115159050919050565b61129b81611287565b82525050565b5f6020820190506112b45f830184611292565b92915050565b6112c381611216565b82525050565b5f6020820190506112dc5f8301846112ba565b92915050565b5f5f5f606084860312156112f9576112f86111b8565b5b5f61130686828701611202565b935050602061131786828701611202565b925050604061132886828701611235565b9150509250925092565b5f60ff82169050919050565b61134781611332565b82525050565b5f6020820190506113605f83018461133e565b92915050565b5f6020828403121561137b5761137a6111b8565b5b5f61138884828501611202565b91505092915050565b61139a816111db565b82525050565b5f6020820190506113b35f830184611391565b92915050565b5f602082840312156113ce576113cd6111b8565b5b5f6113db84828501611235565b91505092915050565b5f5f604083850312156113fa576113f96111b8565b5b5f61140785828601611202565b925050602061141885828601611202565b9150509250929050565b7f4e487b71000000000000000000000000000000000000000000000000000000005f52602260045260245ffd5b5f600282049050600182168061146657607f821691505b60208210810361147957611478611422565b5b50919050565b5f6040820190506114925f8301856112ba565b61149f60208301846112ba565b9392505050565b5f6040820190506114b95f830185611391565b6114c660208301846112ba565b9392505050565b5f6060820190506114e05f830186611391565b6114ed60208301856112ba565b6114fa60408301846112ba565b949350505050565b7f4e487b71000000000000000000000000000000000000000000000000000000005f52601160045260245ffd5b5f61153982611216565b915061154483611216565b925082820190508082111561155c5761155b611502565b5b9291505056fea264697066735822122096f3f6099c3623ba02e7a0c1f676b40b21fdf8262859f1fc452768f0bd5095d364736f6c634300081c0033",
    "linkReferences": {}
  },
  "methodIdentifiers": {
    "allowance(address,address)": "dd62ed3e",
    "approve(address,uint256)": "095ea7b3",
    "balanceOf(address)": "70a08231",
    "decimals()": "313ce567",
    "mint(address,uint256)": "40c10f19",
    "name()": "06fdde03",
    "owner()": "8da5cb5b",
    "pauseMinting()": "da8fbf2a",
    "paused()": "5c975abb",
    "renounceOwnership()": "715018a6",
    "symbol()": "95d89b41",
    "threshold()": "42cde4e8",
    "thresholdCrossed()": "1b9bd4a0",
    "totalSupply()": "18160ddd",
    "transfer(address,uint256)": "a9059cbb",
    "transferFrom(address,address,uint256)": "23b872dd",
    "transferOwnership(address)": "f2fde38b",
    "unpauseMinting()": "ae200322",
    "updateThreshold(uint256)": "d7d7442f"
  },
  "id": 28
}